S01B00004C61626F7261746F72696F345F536C617665312E73726563CC
S11300000C945A000C946C000C946C000C946C00CE
S11300100C946C000C946C000C946C000C946C00AC
S11300200C946C000C946C000C946C000C946C009C
S11300300C946C000C946C000C946C000C946C008C
S11300400C946C000C946C000C946C000C946C007C
S11300500C946C000C946C000C946C000C946C006C
S11300600C946C040C946C000C946C000C946C0058
S11300700C946C000C946C000C946C000C946C004C
S11300800C946C000C946C000C946C000C946C003C
S11300900C946C000C946C000C946C000C946C002C
S11300A00C946C000C946C000C94A8040C946C00DC
S11300B00C946C0011241FBECFEFD8E0DEBFCDBF7F
S11300C021E0A0E0B1E001C01D92AD30B207E1F73C
S11300D00E9414040C944C050C940000863008F023
S11300E045C061111CC094B1482F477021E030E035
S11300F002C0220F331F4A95E2F7292B24B984301A
S113010029F4E9ECF0E090819F7E9083833009F03C
S113011043C1E9ECF0E08081877F808308956130FA
S113012099F444B1877021E030E0B90102C0660F50
S1130130771F8A95E2F7CB01962F9095942394B973
S113014095B1892B85B90895623009F025C144B170
S1130150877021E030E0B90102C0660F771F8A95ED
S1130160E2F7CB018095842384B908959AEF980F20
S1130170963008F052C0611117C047B190E0029662
S113018087709078992324F40197886F9F6F019664
S113019021E030E0B90102C0660F771F8A95E2F7CB
S11301A0CB01842B87B908956130E1F447B190E025
S11301B0029687709078992324F40197886F9F6F33
S11301C0019621E030E0B90102C0660F771F8A95DD
S11301D0E2F7CB01962F9095942397B998B1892B88
S11301E088B90895623009F0D7C047B190E002960B
S11301F087709078992324F40197886F9F6F0196F4
S113020021E030E0B90102C0660F771F8A95E2F75A
S1130210CB018095842387B9089594EF980F983083
S113022008F065C061112AC09AB1282F30E02C5F14
S11302303F4F27703078332334F421503109286F2D
S11302403F6F2F5F3F4F41E050E0BA0102C0660F9D
S1130250771F2A95E2F79B01292B2AB98C3029F4C0
S1130260E1ECF0E090819F7E90838D3009F094C0A2
S1130270E1ECF0E08081877F808308956130E1F4D0
S11302804AB190E0049687709078992324F40197FA
S1130290886F9F6F019621E030E0B90102C0660FBC
S11302A0771F8A95E2F7CB01962F909594239AB9FC
S11302B09BB1892B8BB90895623009F06DC04AB1A6
S11302C090E0049687709078992324F40197886FBE
S11302D09F6F019621E030E0B90102C0660F771FDD
S11302E08A95E2F7CB01809584238AB908959CEE20
S11302F0980F923008F050C0611117C04DB190E0D2
S1130300029787709078992324F40197886F9F6FE0
S1130310019621E030E0B90102C0660F771F8A958B
S1130320E2F7CB01842B8DB908956130E1F44DB12E
S113033090E0029787709078992324F40197886F4E
S11303409F6F019621E030E0B90102C0660F771F6C
S11303508A95E2F7CB01962F909594239DB99EB18F
S1130360892B8EB908956230B9F44DB190E00297AB
S113037087709078992324F40197886F9F6F019672
S113038021E030E0B90102C0660F771F8A95E2F7D9
S1130390CB01809584238DB908958630F8F46623C3
S11303A071F045B1877021E030E0B90102C0660FF9
S11303B0771F8A95E2F7CB01842B85B9089545B15F
S11303C0877021E030E0B90102C0660F771F8A957B
S11303D0E2F7CB018095842385B908959AEF980FAD
S11303E0963088F56623B9F048B190E0029687709C
S11303F09078992324F40197886F9F6F019621E0E8
S113040030E0B90102C0660F771F8A95E2F7CB018D
S1130410842B88B9089548B190E00296877090784B
S1130420992324F40197886F9F6F019621E030E0AF
S1130430B90102C0660F771F8A95E2F7CB01809558
S1130440842388B9089594EF980F983088F566232B
S1130450B9F04BB190E0049687709078992324F416
S11304600197886F9F6F019621E030E0B90102C0C7
S1130470660F771F8A95E2F7CB01842B8BB9089519
S11304804BB190E0049687709078992324F40197F7
S1130490886F9F6F019621E030E0B90102C0660FBA
S11304A0771F8A95E2F7CB01809584238BB9089551
S11304B09CEE980F923080F56623B9F04EB190E02F
S11304C0029787709078992324F40197886F9F6F1F
S11304D0019621E030E0B90102C0660F771F8A95CA
S11304E0E2F7CB01842B8EB908954EB190E00297C8
S11304F087709078992324F40197886F9F6F0196F1
S113050021E030E0B90102C0660F771F8A95E2F757
S1130510CB01809584238EB90895863060F493B11D
S1130520282F2770892F90E002C0959587952A95EA
S1130530E2F7817008959AEF980F9630C0F496B15F
S1130540282F30E02E5F3F4F27703078332334F468
S113055021503109286F3F6F2F5F3F4F892F90E063
S113056002C0959587952A95E2F78170089594EFD6
S1130570980F9830C0F499B1282F30E02C5F3F4F8A
S113058027703078332334F421503109286F3F6FBA
S11305902F5F3F4F892F90E002C0959587952A954C
S11305A0E2F7817008959CEE980F9230C0F49CB1EC
S11305B0282F30E02250310927703078332334F467
S11305C021503109286F3F6F2F5F3F4F892F90E0F3
S11305D002C0959587952A95E2F78170089581E088
S11305E0089580930C01E0E9F0E080818C738083AE
S11305F0E1E9F0E08081877E80838081826080836E
S11306001092950010929400089560E080910C017E
S11306100E946E0060E080910C010E94CD012FEFDA
S113062089EF90E0215080409040E1F700C0000045
S113063061E080910C010E94CD012AE62A95F1F730
S113064000C062E080910C010E946E008AE68A95E7
S1130650F1F700C0089510929500109294008091D3
S11306600C010E948D02882339F0809194009091AE
S113067095008F3F914098F380919400909195005C
S11306808F3F9140D0F41092950010929400809185
S11306900C010E948D02811107C0809194009091F9
S11306A095008F3F914098F380919400909195002C
S11306B08F3F914020F080E0089580E0089581E02C
S11306C00895CF93DF93D0E0C0E03FC0109295002F
S11306D01092940080910C010E948D02882339F0BD
S11306E080919400909195008F3F914098F31092DF
S11306F095001092940080910C010E948D0281114A
S113070007C080919400909195008F3F914098F399
S1130710109295001092940080919400909195000D
S1130720CD97D0F380910C010E948D02882361F053
S113073027E030E02C1B310981E090E002C0880FF3
S1130740991F2A95E2F7D82BCF5FC83008F4BECFA3
S11307508D2FDF91CF910895CF92DF92EF92FF9288
S11307600F931F93CF93DF93EC018B010E9405033A
S11307700E942B03882391F10E946103D82E0E94CA
S11307806103F82E0E946103E82E0E946103C82EC3
S11307900E9461032F2D30E02D0D311D2E0D311DD2
S11307A02C0D311D90E028173907B9F46D2D70E038
S11307B080E090E00E94E604F80160837183828304
S11307C093836E2D70E080E090E00E94E6046883DD
S11307D079838A839B8381E001C080E0DF91CF919C
S11307E01F910F91FF90EF90DF90CF90089510929A
S11307F0A000E1EAF0E080818860808380818560E8
S11308008083E2E7F0E080818260808387E09DE37B
S11308109093A9008093A8000895880F8093BA004C
S113082085E48093BC000895F8940E94F70386E35E
S11308300E940D0485E10E94F102789460E081E059
S11308400E946E0060E082E00E946E0080910801C8
S1130850882341F01092080160E071E084E091E0A7
S11308600E94AC0380910A01882381F310920A014B
S113087080910901823BE9F028F4813A41F0813BFF
S113088099F026C0833BD1F0843BE9F021C060910C
S113089000017091010180910201909103010E9475
S11308A0B70460930B01D2CF60E081E00E94CD01D8
S11308B0CDCF61E081E00E94CD01C8CF60E082E04D
S11308C00E94CD01C3CF61E082E00E94CD01BECF82
S11308D08FEF80930B01BACF1F920F920FB60F9236
S11308E011248F938091B900887F803869F018F4BF
S11308F0803631F024C0883A91F0883BC1F01FC0A3
S113090085EC8093BC001EC08091BB0080930901DC
S113091081E080930A0185EC8093BC0013C0809130
S11309200B018093BB0085EC8093BC000BC08091CD
S11309300B018093BB0085EC8093BC0003C085EC65
S11309408093BC008F910F900FBE0F901F9018954D
S11309501F920F920FB60F9211248F9381E0809310
S113096008018F910F900FBE0F901F9018950E9451
S11309702B0588F09F5798F0B92F9927B751B0F0FD
S1130980E1F0660F771F881F991F1AF0BA95C9F70F
S113099014C0B13091F00E944505B1E008950C9463
S11309A04505672F782F8827B85F39F0B93FCCF316
S11309B0869577956795B395D9F73EF4909580958C
S11309C0709561957F4F8F4F9F4F0895E89409C0AC
S11309D097FB3EF490958095709561957F4F8F4F6E
S11309E09F4F9923A9F0F92F96E9BB279395F69584
S11309F0879577956795B795F111F8CFFAF4BB0F02
S1130A0011F460FF1BC06F5F7F4F8F4F9F4F16C065
S1130A10882311F096E911C0772321F09EE8872FEF
S1130A20762F05C0662371F096E8862F70E060E0AB
S1130A302AF09A95660F771F881FDAF7880F969524
S1130A40879597F9089557FD9058440F551F59F00D
S1130A505F3F71F04795880F97FB991F61F09F3FA7
S1130A6079F087950895121613061406551FF2CFD0
S1130A704695F1DF08C0161617061806991FF1CF20
S1130A8086957105610508940895E894BB27662747
S10F0A907727CB0197F90895F894FFCF65
S9030000FC
