S01B00004C61626F7261746F72696F345F4D61737465722E737265638C
S11300000C945A000C9477000C9477000C947700AD
S11300100C9477000C9477000C9477000C94770080
S11300200C9477000C9477000C9477000C94770070
S11300300C9477000C9477000C9477000C94770060
S11300400C9477000C9477000C94FE050C947700C4
S11300500C9477000C9477000C9477000C94770040
S11300600C9477000C9477000C9477000C94770030
S11300700C9477000C9477000C9477000C94770020
S11300800C9477000C9477000C9477000C94770010
S11300900C9477000C9477000C9477000C94770000
S11300A00C9477000C9477000C9420060C94770041
S11300B00C94770011241FBECFEFD8E0DEBFCDBF74
S11300C011E0A0E0B1E0EEE3F7E102C005900D928B
S11300D0A634B107D9F721E0A6E4B1E001C01D922E
S11300E0AD35B207E1F70E94D4040C949D0B0C9437
S11300F00000863008F045C061111CC094B1482F3F
S1130100477021E030E002C0220F331F4A95E2F726
S1130110292B24B9843029F4E9ECF0E090819F7E06
S11301209083833009F043C1E9ECF0E08081877F5C
S113013080830895613099F444B1877021E030E000
S1130140B90102C0660F771F8A95E2F7CB01962F9B
S11301509095942394B995B1892B85B9089562300B
S113016009F025C144B1877021E030E0B90102C033
S1130170660F771F8A95E2F7CB018095842384B9B3
S113018008959AEF980F963008F052C0611117C085
S113019047B190E0029687709078992324F40197F0
S11301A0886F9F6F019621E030E0B90102C0660FAD
S11301B0771F8A95E2F7CB01842B87B908956130C4
S11301C0E1F447B190E0029687709078992324F483
S11301D00197886F9F6F019621E030E0B90102C05A
S11301E0660F771F8A95E2F7CB01962F909594239B
S11301F097B998B1892B88B90895623009F0D7C0AE
S113020047B190E0029687709078992324F401977F
S1130210886F9F6F019621E030E0B90102C0660F3C
S1130220771F8A95E2F7CB018095842387B90895D7
S113023094EF980F983008F065C061112AC09AB104
S1130240282F30E02C5F3F4F27703078332334F46D
S113025021503109286F3F6F2F5F3F4F41E050E03D
S1130260BA0102C0660F771F2A95E2F79B01292B7A
S11302702AB98C3029F4E1ECF0E090819F7E9083E0
S11302808D3009F094C0E1ECF0E08081877F8083B9
S113029008956130E1F44AB190E004968770907853
S11302A0992324F40197886F9F6F019621E030E031
S11302B0B90102C0660F771F8A95E2F7CB01962F2A
S11302C0909594239AB99BB1892B8BB90895623088
S11302D009F06DC04AB190E0049687709078992334
S11302E024F40197886F9F6F019621E030E0B901F3
S11302F002C0660F771F8A95E2F7CB0180958423AD
S11303008AB908959CEE980F923008F050C061119C
S113031017C04DB190E0029787709078992324F428
S11303200197886F9F6F019621E030E0B90102C008
S1130330660F771F8A95E2F7CB01842B8DB9089558
S11303406130E1F44DB190E0029787709078992381
S113035024F40197886F9F6F019621E030E0B90182
S113036002C0660F771F8A95E2F7CB01962F90950E
S113037094239DB99EB1892B8EB908956230B9F446
S11303804DB190E0029787709078992324F40197F7
S1130390886F9F6F019621E030E0B90102C0660FBB
S11303A0771F8A95E2F7CB01809584238DB9089550
S11303B08630F8F4662371F045B1877021E030E0AF
S11303C0B90102C0660F771F8A95E2F7CB01842B2F
S11303D085B9089545B1877021E030E0B90102C0C4
S11303E0660F771F8A95E2F7CB018095842385B940
S11303F008959AEF980F963088F56623B9F048B1BE
S113040090E0029687709078992324F40197886F7E
S11304109F6F019621E030E0B90102C0660F771F9B
S11304208A95E2F7CB01842B88B9089548B190E00E
S1130430029687709078992324F40197886F9F6FB0
S1130440019621E030E0B90102C0660F771F8A955A
S1130450E2F7CB018095842388B9089594EF980F2F
S1130460983088F56623B9F04BB190E00496877014
S11304709078992324F40197886F9F6F019621E067
S113048030E0B90102C0660F771F8A95E2F7CB010D
S1130490842B8BB908954BB190E0049687709078C3
S11304A0992324F40197886F9F6F019621E030E02F
S11304B0B90102C0660F771F8A95E2F7CB018095D8
S11304C084238BB908959CEE980F923080F56623AF
S11304D0B9F04EB190E0029787709078992324F494
S11304E00197886F9F6F019621E030E0B90102C047
S11304F0660F771F8A95E2F7CB01842B8EB9089596
S11305004EB190E0029787709078992324F4019774
S1130510886F9F6F019621E030E0B90102C0660F39
S1130520771F8A95E2F7CB01809584238EB90895CD
S1130530CF93C82F682F617080914D010E94D8011C
S11305406C2F627080914B010E94D8016C2F6470F3
S113055080914F010E94D8016C2F687080915101E5
S11305600E94D8016C2F6071809153010E94D801C0
S11305706C2F6072809150010E94D8016C2F6074BE
S113058080914C010E94D8016C2F607880914E01BB
S11305900E94D80160E0809152010E94D80161E07C
S11305A080914A010E94D8018FE79EE30197F1F7F9
S11305B000C0000060E080914A010E94D801CF9100
S11305C0089581E00E9498028FE39FE10197F1F77B
S11305D000C0000008958CE00E9498028FE39FE120
S11305E00197F1F700C0000008958F92AF92CF9267
S11305F0EF920F93CF93DF93CDB7DEB78093520181
S113060060934A0140934D0120934B0100934F01A5
S1130610E0925101C0925301A092500180924C018A
S11306209A8590934E0160E00E94790060E0809189
S11306304A010E94790060E080914D010E94790096
S113064060E080914B010E94790060E080914F014D
S11306500E94790060E0809151010E94790060E07D
S1130660809153010E94790060E0809150010E94C2
S1130670790060E080914C010E94790060E08091F3
S11306804E010E9479008FE59AEE0197F1F700C0C0
S1130690000088E30E9498028FE19EE40197F1F73D
S11306A000C000000E94EB028FEF9CE70197F1F776
S11306B000C0000086E00E9498028FE39CE9019745
S11306C0F1F700C000000E94E1028FEF9CE7019760
S11306D0F1F700C00000DF91CF910F91EF90CF9020
S11306E0AF908F900895CF93C82F682F6170809139
S11306F04D010E94D8016C2F627080914B010E94C1
S1130700D8016C2F647080914F010E94D8016C2F26
S11307106870809151010E94D8016C2F60718091A2
S113072053010E94D8016C2F6072809150010E9485
S1130730D8016C2F607480914C010E94D8016C2FF9
S1130740607880914E010E94D80161E0809152014D
S11307500E94D80161E080914A010E94D8018FE78C
S11307609EE30197F1F700C0000060E080914A0128
S11307700E94D8018FE39FE10197F1F700C00000C8
S1130780CF910895CF93DF93EC0103C00E947303CC
S1130790219688818111FACFDF91CF91089518169F
S11307A00CF081E083300CF082E016160CF061E06E
S11307B061310CF060E1813019F48FEF860F02C0D3
S11307C08FE3860F80680E94980208951092A0001B
S11307D0E1EAF0E0808188608083808185608083A5
S11307E0E2E7F0E080818260808387E09DE390937C
S11307F0A9008093A8000895E9EBF0E080818E7F42
S1130800808380818D7F808388E48093B80084E036
S11308108093BC00089584EA8093BC000895ECEBB7
S1130820F0E08081846980838091BC0084FDFCCFEA
S11308300895CF93DF93C82FD62F0E940B04809185
S1130840BC008823E4F78091B900887F883021F0C8
S11308500E940F0481E028C0CC0FC093BB0084E841
S11308608093BC008091BC008823E4F78091B90098
S1130870887F883121F00E940F0481E015C0D09355
S1130880BB0084E88093BC008091BC008823E4F71B
S11308908091B900887F883221F00E940F0481E0A2
S11308A003C00E940F0480E0DF91CF9108950F935D
S11308B01F93CF93DF93182F062FEA010E940B0496
S11308C08091BC008823E4F78091B900887F883048
S11308D021F00E940F0481E062C0812F880F809371
S11308E0BB0084E88093BC008091BC008823E4F7BB
S11308F08091B900887F883121F00E940F0481E043
S11309004EC00093BB0084E88093BC008091BC007F
S11309108823E4F78091B900887F883221F00E940F
S11309200F0481E03CC00E940B048091BC0088232A
S1130930E4F78091B900887F803121F00E940F0490
S113094081E02DC0812F90E0880F991F81608093F2
S1130950BB0084E88093BC008091BC008823E4F74A
S11309608091B900887F803421F00E940F0481E0D7
S113097016C084E88093BC008091BC008823E4F70F
S11309808091B900887F883521F00E940F0481E0AE
S113099006C08091BB0088830E940F0480E0DF9131
S11309A0CF911F910F910895F8940E94FC030E9427
S11309B0E603E12C01E020E040E855E260E070E06D
S11309C080E00E9482068EE08F930F2EFFE08F2E30
S11309D0F02D6894AA24A4F80F2EF1E1CF2EF02D67
S11309E00F2EF2E1EF2EF02D03E120E041E062E072
S11309F083E00E94F5020E94E10261E081E00E942E
S1130A00CF0386E091E00E94C20369E081E00E9486
S1130A10CF038CE091E00E94C20361E082E00E9477
S1130A20CF0382E191E00E94C20378948FE39CE9B2
S1130A300197F1F700C000000F90809149018823CD
S1130A40E1F080914701811118C080914901813002
S1130A5031F461EB86E30E941904109249018091FC
S1130A604901823031F462EB86E30E94190410924A
S1130A704901109249011092480180914801811165
S1130A80DCCF809147018111D8CF80915701882311
S1130A90A1F281E080934701109257018FE39FE117
S1130AA00197F1F700C0000046E551E061EA82E4F5
S1130AB00E9457048FE39FE10197F1F700C0000003
S1130AC080915601853628F062EB82E40E94190475
S1130AD004C061EB82E40E94190461E081E00E9499
S1130AE0CF0388E191E00E94C2038AE291E00E9470
S1130AF0C20365E081E00E94CF038091560190E03B
S1130B000E9428070E94C2038FE39FE10197F1F737
S1130B1000C0000048E551E061EA86E30E94570402
S1130B208FE39FE10197F1F700C000008091580125
S1130B30813528F062EB86E30E94190404C061EB5E
S1130B4086E30E94190469E081E00E94CF038DE1ED
S1130B5091E00E94C2038AE291E00E94C2036DE028
S1130B6081E00E94CF038091580190E00E94280701
S1130B700E94C20382E291E00E94C2038FE39FE1DC
S1130B800197F1F700C0000044E551E060E089E41A
S1130B900E9457048FE39FE10197F1F700C0000022
S1130BA0809154018F3128F064EB86E30E9419048C
S1130BB004C063EB86E30E94190461E082E00E94B2
S1130BC0CF0384E291E00E94C20389E291E00E9493
S1130BD0C20365E082E00E94CF038091540190E05B
S1130BE00E9428070E94C2038FED0E9473038FE2C4
S1130BF091E00E94C203109247011FCF1F920F92EF
S1130C000FB60F9211248F938091C6008A3091F011
S1130C108D3081F0863541F0863761F481E0809330
S1130C2049018093480106C082E08093490181E034
S1130C30809348018F910F900FBE0F901F901895CD
S1130C401F920F920FB60F9211240F931F932F939D
S1130C503F934F935F936F937F938F939F93AF9340
S1130C60BF93EF93FF93CF93DF93CDB7DEB7C05419
S1130C70D109DEBFCDBF81E0809357018091460149
S1130C808F5F80934601843008F110924601809171
S1130C9056011F928F93809154011F928F938091DC
S1130CA058011F928F9381E391E09F938F938E015C
S1130CB00F5F1F4F1F930F930E94B308C8010E9438
S1130CC015070FB6F894DEBF0FBECDBFC05CDF4F73
S1130CD00FB6F894DEBF0FBECDBFDF91CF91FF9169
S1130CE0EF91BF91AF919F918F917F916F915F91A0
S1130CF04F913F912F911F910F910F900FBE0F9025
S1130D001F901895EF92FF920F931F939AB19E7FB5
S1130D109AB9E1ECF0E09081906190839AB192608D
S1130D209AB9908198609083A0ECB0E09C919D7FEB
S1130D30922B9C93908130E8039F800111249F772C
S1130D40092B0083908130E4E39E700111249F7B82
S1130D50E92AE082E2ECF0E090819F73982B908383
S1130D609081907C9660908321112AC0803499F4FC
S1130D70403855426105710539F480E493E090935D
S1130D80C5008093C4004CC080E493E09093C500F8
S1130D908093C40045C0811143C040385542610569
S1130DA0710539F487E690E09093C5008093C40000
S1130DB037C087E690E09093C5008093C40030C0AC
S1130DC0223071F58034C1F4E0ECF0E080818D7F55
S1130DD08083403855426105710539F480E493E01D
S1130DE09093C5008093C4001BC080E493E090936B
S1130DF0C5008093C40014C0811112C0403855420C
S1130E006105710539F48FEC90E09093C5008093EF
S1130E10C40006C08FEC90E09093C5008093C4009A
S1130E201F910F91FF90EF900895AC01892B79F0F9
S1130E3020E007C09091C00095FFFCCF3093C6001E
S1130E402F5FFA01E20FF11D30813111F3CF0895C4
S1130E500F931F93CF93DF93182F092F9F938F9393
S1130E6081E491E09F938F931F921F921F921F9290
S1130E700E94830801960E946207EC018DB79EB719
S1130E8008960FB6F8949EBF0FBE8DBF209799F0B9
S1130E900F931F9381E491E09F938F93DF93CF93FC
S1130EA00E94B3080F900F900F900F900F900F9027
S1130EB08C2F9D2F02C080E090E0DF91CF911F9195
S1130EC00F9108950F931F93CF93DF938230910571
S1130ED010F482E090E0E0915B01F0915C0120E08D
S1130EE030E0A0E0B0E0309719F1408151810281F7
S1130EF0138148175907C8F08417950769F41097A8
S1130F0031F012960C93129713961C9327C00093FA
S1130F105B0110935C0122C02115310519F04217C1
S1130F20530718F49A01BD01EF01DF01F801DBCF8B
S1130F3021153105F9F0281B390B2430310580F4D3
S1130F408A819B816115710521F0FB019383828362
S1130F5004C090935C0180935B01FE01329644C00F
S1130F60FE01E20FF31F81939193225031093983DB
S1130F7028833AC02091590130915A01232B41F41E
S1130F80209102013091030130935A0120935901B9
S1130F9020910001309101012115310541F42DB753
S1130FA03EB74091040150910501241B350BE0919B
S1130FB05901F0915A01E217F307A0F42E1B3F0BDD
S1130FC02817390778F0AC014E5F5F4F24173507B7
S1130FD048F04E0F5F1F50935A014093590181937B
S1130FE0919302C0E0E0F0E0CF01DF91CF911F9137
S1130FF00F910895CF93DF93009709F481C0FC010A
S1131000329713821282A0915B01B0915C01109718
S113101081F420813181820F931F209159013091F5
S11310205A012817390751F5F0935A01E0935901F1
S113103067C0ED0120E030E0CE17DF0740F44A81BD
S11310405B819E0141155105F1F0EA01F5CFD3838F
S1131050C28340815181840F951FC817D90759F461
S113106088819981840F951F0296918380838A8158
S11310709B81938382832115310529F4F0935C01CC
S1131080E0935B013DC0E901FB83EA8349915991F7
S1131090C40FD51FEC17FD0761F480819181840F83
S11310A0951F0296E90199838883828193819B83AA
S11310B08A83E0E0F0E012968D919C91139700975B
S11310C019F0FD01DC01F7CF8D919C9111979D01E1
S11310D02E5F3F4F820F931F2091590130915A0187
S11310E02817390769F4309729F410925C0110929B
S11310F05B0102C013821282B0935A01A09359017A
S1131100DF91CF910895AEE0B0E0E9E8F8E00C9407
S1131110740B0D891E898F89988D26E02C831A8380
S1131120098397FF02C080E090E801979E838D8336
S1131130AE01455E5F4F698D7A8DCE0101960E94A6
S1131140D5084D815E8157FD0AC02F81388542172D
S113115053070CF49A01F801E20FF31F10822E9644
S1131160E4E00C94900BAEE0B0E0E9EBF8E00C9412
S1131170740B0D891E8986E08C831A8309838FEF93
S11311809FE79E838D83AE01475E5F4F6F89788DA5
S1131190CE0101960E94D508EF81F885E00FF11F7A
S11311A010822E96E4E00C94900BABE0B0E0EBEDF3
S11311B0F8E00C94660B6C017B018A01FC01178238
S11311C01682838181FFCCC1CE0101963C01F601D8
S11311D09381F70193FD859193FF81917F0188238A
S11311E009F4BAC1853239F493FD859193FF819155
S11311F07F01853229F4B60190E00E94CC0AE7CF42
S1131200912C212C312CFFE1F315D8F08B3279F09D
S113121038F4803279F08332A1F4232D20611DC08B
S11312208D3261F0803369F4232D216016C0832D43
S11312308260382EE32DE4603E2E2AC0F32DF86040
S11312401DC037FC2DC020ED280F2A3040F08E320F
S1131250B9F436FC81C1232D2064322E19C036FE28
S113126006C08AE0989E200D1124922E11C0EAE057
S11312702E9E200D1124222EF32DF0623F2E08C045
S11312808C3621F4832D8068382E02C0883641F4D0
S1131290F70193FD859193FF81917F018111B3CF74
S11312A0982F9F7D9554933028F40C5F1F4F9FE334
S11312B099830DC0833631F0833771F0833509F09B
S11312C059C021C0F801808189830E5F1F4F882493
S11312D08394912C530113C02801F2E04F0E511C4A
S11312E0F801A080B18036FE03C0692D70E002C011
S11312F06FEF7FEFC5010E94C10A4C018201F32DFB
S1131300FF773F2E16C0280122E0420E511CF8013F
S1131310A080B18036FE03C0692D70E002C06FEF7B
S11313207FEFC5010E94B60A4C01F32DF0683F2EF1
S1131330820133FC1BC0822D90E088169906B0F41C
S1131340B60180E290E00E94CC0A2A94F4CFF50121
S113135037FC859137FE81915F01B60190E00E94D0
S1131360CC0A21102A9421E0821A91088114910454
S113137071F7E8C0843611F0893641F5F80137FE7B
S113138007C060817181828193810C5F1F4F08C007
S113139060817181072E000C880B990B0E5F1F4F23
S11313A0F32DFF763F2E97FF09C090958095709599
S11313B061957F4F8F4F9F4FF0683F2E2AE030E0BA
S11313C0A3010E94080B882E861845C0853731F486
S11313D0232D2F7EB22E2AE030E025C0932D997F55
S11313E0B92E8F36C1F018F4883579F0B5C080373E
S11313F019F0883721F0B0C0E92FE061BE2EB4FEA9
S11314000DC0FB2DF460BF2E09C034FE0AC0292F85
S11314102660B22E06C028E030E005C020E130E0AE
S113142002C020E132E0F801B7FE07C0608171819B
S1131430828193810C5F1F4F06C06081718180E0BF
S113144090E00E5F1F4FA3010E94080B882E8618A0
S1131450FB2DFF773F2E36FE0DC0232D2E7FA22EAF
S1131460891458F434FE0BC032FC09C0832D8E7EDF
S1131470A82E05C0B82CA32C03C0B82C01C0B92CCD
S1131480A4FE0FC0FE01E80DF11D8081803321F41C
S11314909A2D997EA92E09C0A2FE06C0B394B394D6
S11314A004C08A2D867809F0B394A3FC11C0A0FE71
S11314B006C0B21488F4280C922C9B180EC0B214E7
S11314C060F4B60180E290E00E94CC0AB394F7CFB6
S11314D0B21418F42B1802C0982C212CA4FE10C0AE
S11314E0B60180E390E00E94CC0AA2FE17C0A1FCE2
S11314F003C088E790E002C088E590E0B6010CC024
S11315008A2D867859F0A1FE02C08BE201C080E2E8
S1131510A7FC8DE2B60190E00E94CC0A891438F44D
S1131520B60180E390E00E94CC0A9A94F7CF8A94A3
S1131530F301E80DF11D8081B60190E00E94CC0A10
S11315408110F5CF222009F442CEB60180E290E06A
S11315500E94CC0A2A94F6CFF6018681978102C0B4
S11315608FEF9FEF2B96E2E10C94820BFC01059028
S1131570615070400110D8F7809590958E0F9F1F91
S11315800895FC016150704001900110D8F78095D6
S113159090958E0F9F1F08950F931F93CF93DF9302
S11315A0FB01238121FD03C08FEF9FEF2CC022FF9D
S11315B016C046815781248135814217530744F46C
S11315C0A081B1819D012F5F3F4F318320838C9394
S11315D0268137812F5F3F4F3783268314C08B01C9
S11315E0EC01FB010084F185E02D0995892BE1F6DE
S11315F0D80116968D919C911797019617969C93F6
S11316008E931697CE01DF91CF911F910F9108957C
S1131610FA01AA27283051F1203181F1E8946F931F
S11316206E7F6E5F7F4F8F4F9F4FAF4FB1E03ED0C5
S1131630B4E03CD0670F781F891F9A1FA11D680F63
S1131640791F8A1F911DA11D6A0F711D811D911D96
S1131650A11D20D009F468943F912AE0269F11240B
S11316603019305D3193DEF6CF010895462F47706F
S1131670405D4193B3E00FD0C9F7F6CF462F4F70CA
S1131680405D4A3318F0495D31FD4052419302D028
S1131690A9F7EACFB4E0A6959795879577956795CE
S11316A0BA95C9F700976105710508959B01AC01CE
S11316B00A2E06945795479537952795BA95C9F7F5
S11316C0620F731F841F951FA01D08952F923F92D0
S11316D04F925F926F927F928F929F92AF92BF923E
S11316E0CF92DF92EF92FF920F931F93CF93DF93EA
S11316F0CDB7DEB7CA1BDB0B0FB6F894DEBF0FBE47
S1131700CDBF09942A88398848885F846E847D8493
S11317108C849B84AA84B984C884DF80EE80FD8095
S11317200C811B81AA81B981CE0FD11D0FB6F8940B
S1111730DEBF0FBECDBFED010895F894FFCFCC
S113173E00005D0120007834323A30007833363AB6
S113174E30007834393A30007834323A007833360F
S113175E3A0025007834393A002020202020004316
S113176E00483A25640A543A25640A473A25640A1D
S109177E002564002E00AA
S9030000FC
