:100000000C945A000C946C000C946C000C946C00D2
:100010000C946C000C946C000C946C000C946C00B0
:100020000C946C000C946C000C946C000C946C00A0
:100030000C946C000C946C000C946C000C946C0090
:100040000C946C000C946C000C946C000C946C0080
:100050000C946C000C946C000C946C000C946C0070
:100060000C9405010C946C000C946C000C946C00C6
:100070000C946C000C946C000C946C000C946C0050
:100080000C946C000C946C000C946C000C946C0040
:100090000C946C000C946C000C946C000C946C0030
:1000A0000C946C000C946C000C9441010C946C004A
:1000B0000C946C0011241FBECFEFD8E0DEBFCDBF83
:1000C00021E0A0E0B1E001C01D92A530B207E1F748
:1000D0000E94CA000C940B040C940000ECE7F0E0C2
:1000E00090819F73892B808380818F7D682B6083B3
:1000F000EAE7F0E08081887F482B4083ABE7B0E0FF
:100100008C91887F282B2C9380818F778083089512
:10011000EEE7F0E0908121E030E0082E02C0220FEF
:10012000331F0A94E2F7922B9083ECE7F0E0908182
:10013000907F892B8083EAE7F0E08081806C808368
:1001400080917A0086FDFCCFEEE7F0E0808120957B
:10015000282320838091790008951092A000E1EA7D
:10016000F0E0808188608083808185608083E2E721
:10017000F0E080818260808387E09DE39093A90016
:100180008093A8000895880F8093BA0085E4809337
:10019000BC000895F8940E94AD000E94AF0182E473
:1001A0000E94C30020E047E060E280E40E946E000D
:1001B000789480910101882339F01092010187E041
:1001C0000E9488008093000180910301882389F3B5
:1001D0001092030180910201813B49F0823B61F062
:1001E000813A79F48091000180930401E2CF80E0AC
:1001F00090E00E94CB01DDCF84EB90E00E94CB0128
:10020000D8CF81E280930401D4CF1F920F920FB612
:100210000F9211248F938091B900887F803869F004
:1002200018F4803631F024C0883A91F0883BC1F050
:100230001FC085EC8093BC001EC08091BB008093E2
:10024000020181E08093030185EC8093BC0013C020
:10025000809104018093BB0085EC8093BC000BC0AF
:10026000809104018093BB0085EC8093BC0003C0A7
:1002700085EC8093BC008F910F900FBE0F901F9064
:1002800018951F920F920FB60F9211248F9381E051
:10029000809301018F910F900FBE0F901F901895C2
:1002A0004F925F926F927F92AF92BF92CF92DF9206
:1002B000EF92FF920F931F93CF93DF93CDB7DEB7EB
:1002C00028970FB6F894DEBF0FBECDBF29013A01C3
:1002D000ED82FE820F8318870E94020269837A836F
:1002E0008B839C83A6019501698D7A8D8B8D9C8D66
:1002F0000E9402029B01AC0169817A818B819C8101
:100300000E949E0369837A838B839C83A30192015D
:10031000C801B7010E9402029B01AC0169817A8188
:100320008B819C810E946F029B01AC01C601B501CB
:100330000E94030228960FB6F894DEBF0FBECDBF11
:10034000DF91CF911F910F91FF90EF90DF90CF90B1
:10035000BF90AF907F906F905F904F90089584B161
:10036000866084B910928500109284008FE39CE926
:100370009093870080938600E0E8F0E080EA808335
:10038000808182608083E1E8F0E088E18083808181
:10039000826080830895AF92BF92CF92DF92EF92F6
:1003A000FF920F931F93BC0180E090E00E94100326
:1003B00025E42F932AE72F931F921F920F2EA12C33
:1003C000B12CF7E8CF2EF4E4DF2EF02DE12CF12C48
:1003D00004E313E420E030E0A9010E9450010F90F3
:1003E0000F900F900F900E94E1027093890060932C
:1003F00088001F910F91FF90EF90DF90CF90BF90FA
:10040000AF9008955058BB27AA270E941A020C9457
:1004100064030E94560338F00E945D0320F039F413
:100420009F3F19F426F40C9453030EF4E095E7FB78
:100430000C944D03E92F0E94750358F3BA17620715
:1004400073078407950720F079F4A6F50C949703B9
:100450000EF4E0950B2EBA2FA02D0B01B9019001DF
:100460000C01CA01A0011124FF27591B99F0593F23
:1004700050F4503E68F11A16F040A22F232F342F6B
:100480004427585FF3CF469537952795A795F040B9
:100490005395C9F77EF41F16BA0B620B730B840BCE
:1004A000BAF09150A1F0FF0FBB1F661F771F881F86
:1004B000C2F70EC0BA0F621F731F841F48F48795DE
:1004C00077956795B795F7959E3F08F0B0CF9395D0
:1004D000880F08F09927EE0F9795879508950E9449
:1004E00083020C9464030E945D0358F00E9456033B
:1004F00040F029F45F3F29F00C944D0351110C9406
:1005000098030C9453030E94750368F39923B1F385
:10051000552391F3951B550BBB27AA276217730729
:10052000840738F09F5F5F4F220F331F441FAA1FBD
:10053000A9F335D00E2E3AF0E0E832D09150504079
:10054000E695001CCAF72BD0FE2F29D0660F771F27
:10055000881FBB1F261737074807AB07B0E809F00D
:10056000BB0B802DBF01FF2793585F4F3AF09E3F92
:10057000510578F00C944D030C9498035F3FE4F31D
:10058000983ED4F3869577956795B795F7959F5FD5
:10059000C9F7880F911D9695879597F90895E1E021
:1005A000660F771F881FBB1F621773078407BA0780
:1005B00020F0621B730B840BBA0BEE1F88F7E095DB
:1005C00008950E947D0388F09F5798F0B92F9927CE
:1005D000B751B0F0E1F0660F771F881F991F1AF02E
:1005E000BA95C9F714C0B13091F00E949703B1E0F9
:1005F00008950C949703672F782F8827B85F39F0F8
:10060000B93FCCF3869577956795B395D9F73EF4C6
:1006100090958095709561957F4F8F4F9F4F08956E
:10062000E89409C097FB3EF490958095709561958C
:100630007F4F8F4F9F4F9923A9F0F92F96E9BB2742
:100640009395F695879577956795B795F111F8CFBE
:10065000FAF4BB0F11F460FF1BC06F5F7F4F8F4F29
:100660009F4F16C0882311F096E911C0772321F01F
:100670009EE8872F762F05C0662371F096E8862FB7
:1006800070E060E02AF09A95660F771F881FDAF70E
:10069000880F9695879597F9089597F99F6780E851
:1006A00070E060E008959FEF80EC089500240A94C4
:1006B0001616170618060906089500240A9412163D
:1006C0001306140605060895092E0394000C11F470
:1006D000882352F0BB0F40F4BF2B11F460FF04C01D
:1006E0006F5F7F4F8F4F9F4F089557FD9058440F76
:1006F000551F59F05F3F71F04795880F97FB991F81
:1007000061F09F3F79F0879508951216130614063D
:10071000551FF2CF4695F1DF08C0161617061806CA
:10072000991FF1CF86957105610508940895E894A5
:10073000BB2766277727CB0197F908950E94B1035D
:100740000C9464030E94560338F00E945D0320F06D
:10075000952311F00C944D030C94530311240C9425
:1007600098030E94750370F3959FC1F3950F50E0B5
:10077000551F629FF001729FBB27F00DB11D639F53
:10078000AA27F00DB11DAA1F649F6627B00DA11DF9
:10079000661F829F2227B00DA11D621F739FB00D9F
:1007A000A11D621F839FA00D611D221F749F33270F
:1007B000A00D611D231F849F600D211D822F762FA8
:1007C0006A2F11249F5750409AF0F1F088234AF085
:1007D000EE0FFF1FBB1F661F771F881F91505040F1
:1007E000A9F79E3F510580F00C944D030C9498039B
:1007F0005F3FE4F3983ED4F3869577956795B79578
:10080000F795E7959F5FC1F7FE2B880F911D969591
:0A081000879597F90895F894FFCF3B
:00000001FF
